:100000000C94FF000C9426010C9426010C942601FC
:100010000C9426010C9426010C9426010C942601C4
:100020000C9426010C9426010C9426010C942601B4
:100030000C9426010C9426010C9426010C942601A4
:100040000C9426010C9426010C9426010C94260194
:100050000C9426010C9426010C9426010C94260184
:100060000C9426010C9426010C9426010C94260174
:100070000C9426010C9426010C9426010C94260164
:100080000C9426010C9426010C9426010C94260154
:100090000C9470070C9426010C9426010C942601F4
:1000A0000C9426010C9426010C9426010C94260134
:1000B0000C9426010C9426010C9426010C94260124
:1000C0000C9426010C9426010C942601E301E8010E
:1000D000F201050218022C023302506C656173654F
:1000E00020486F6C642E2E2E00446F696E67204688
:1000F000465400696E6600494E46006E616E004EC1
:10010000414E0000407A10F35A00A0724E180900C8
:1001100010A5D4E80000E87648170000E40B54026C
:100120000000CA9A3B000000E1F5050000809698A7
:1001300000000040420F000000A0860100000010F7
:100140002700000000E80300000000640000000039
:10015000000A00000000000100000000002C76D81A
:1001600088DC674F0823DFC1DFAE59E1B1B796E500
:10017000E3E453C63AE651997696E8E6C28426EB64
:10018000898C9B62ED407C6FFCEFBC9C9F40F2BA77
:10019000A56FA5F490055A2AF75C936B6CF9676D0F
:1001A000C11BFCE0E40D47FEF520E6B500D0ED9064
:1001B0002E0300943577050080841E080000204E31
:1001C0000A000000C80C333333330F986E128311CA
:1001D00041EF8D2114893BE65516CFFEE6DB18D1A1
:1001E000844B381BF77C1D901DA4BBE42420328473
:1001F000725E228100C9F124ECA1E53D27001124A3
:100200001FBECFEFD1E2DEBFCDBF88E10FB6F894BD
:1002100080936000109260000FBE12E0A0E0B2E098
:10022000ECEAF9E100E00BBF02C007900D92A231A9
:10023000B107D9F724E1A2E1B2E001C01D92AE32CC
:10024000B207E1F70E94B7070C94D40C0C9400009D
:10025000F8941092C50082E28093C400E0ECF0E0D4
:1002600080818260808388E98093C10086E08093EA
:10027000C20078940895F8941092CD0082E28093A1
:10028000CC00E8ECF0E080818260808388E9809394
:10029000C90086E08093CA00789408959091C000C8
:1002A00095FFFCCF8093C60008959091C80095FFFC
:1002B000FCCF8093CE0008958091C00087FFFCCFD3
:1002C0008091C6000895FC010097A9F0613029F0E3
:1002D0006230A1F486E0818301C061836083DF0125
:1002E000A95FBE4F4D935C93E75FFE4F3183208340
:1002F00080E090E008958FEF9FEF08958EEF9FEFDD
:100300000895A0E0B0E0E7E8F1E00C945708EC01B4
:10031000A12C90E07E0189EFE81A8EEFF80A6E01B9
:10032000A7EFCA1AAEEFDA0A8B81981778F58A2DF3
:10033000891BA82EA90EFE01E90FF11D6581BB24C2
:10034000B394B90E653511F49B2DF3CF67FF08C048
:10035000FE01EB0DF11D958082E0B82EB90E02C0B2
:1003600099249394D701ED91FC91309761F0D601D7
:100370000D911C912B2D30E02B5F3F4F2C0F3D1F1B
:10038000492D8A2D0995992D9B0DCECF80E090E0C7
:10039000CDB7DEB7EBE00C947308FF920F931F9379
:1003A000CF93DF93EC01F62E009709F489C04981C1
:1003B00050E0FA013197E730F10508F077C0EA59CB
:1003C000FF4F0C944A088AEA681307C082E004C011
:1003D0008AEA681305C083E0898380E090E06EC0FC
:1003E00081E0FACF6B838AEA861720F481E0898363
:1003F0008DEF63C08AEA681709F45CC01C82FE01B5
:10040000EB5FFE4F108284E0E7CF8C8191E0980F84
:100410009C83FE01E80FF11D6583FE01EB5FFE4F3B
:100420008081860F80838B819817B8F285E0D4CFC6
:10043000FC01EA5FFE4F608381E08983262F30E074
:1004400031978081809590E028173907A9F5CE0172
:100450000E94810181E0C2CF862F807C803809F024
:10046000BCCF87E0B9CF862F807C8034C1F48A81ED
:100470008D836E83FE01E95FFE4F0190F081E02DD8
:10048000309779F0DE01A75FBE4F0D911C919E0160
:100490002B5F3F4F42E060E880E0099502C080E0BA
:1004A00001C081E090E026E0298308C081E08983D3
:1004B0008BEF03C08CEF01C08EEF9FEFFA8202C07A
:1004C0008FEF9FEFCDB7DEB7E5E00C947908549835
:1004D0005C9A9A9A559A8FEF87B90E947E040E947F
:1004E000AD06089520EA3FE0009729F0F901319721
:1004F000F1F70197F9CF089524E030E0009729F053
:10050000F9013197F1F70197F9CF089589B18295F3
:10051000817091E0892708950E9486028823E1F383
:100520008EE190E00E9472020E9486028111FCCF4F
:100530008EE190E00E9472020895CF930E9486029D
:100540008823E1F38EE190E00E947202C9EB0E94E1
:100550008602882341F0CC2331F082E090E00E94B3
:100560007202C150F4CF0E9486028111FCCF8EE14D
:1005700090E00E94720281E0C11180E0CF91089565
:10058000A29A0895A298089584B394E0892784BB21
:10059000089520E030E090E061E070E040B350E08A
:1005A000022E02C0559547950A94E2F740FD1DC002
:1005B000FC01022E02C0F595E7950A94E2F7E0FFF0
:1005C0000AC0E1B3AB01022E01C0440F0A94EAF75E
:1005D000E42BE1BB0AC0E1B3AB01022E01C0440F22
:1005E0000A94EAF740954E2341BB2F5F3F4F2830D6
:1005F0003105A1F60895811110C06130710559F0DF
:1006000020F06230710521F0089524982C98089507
:1006100024982C9A0895249A0895813081F46130A9
:10062000710559F020F06230710521F00895279886
:100630002F98089527982F9A0895279A08958A3019
:1006400068F582506130710509F120F06230710562
:1006500071F0089591B121E030E001C0220F8A9538
:10066000EAF72095922391B982B182230DC091B10E
:1006700021E030E001C0220F8A95EAF7822F8095B1
:10068000892381B982B1822B82B9089591B1082E54
:1006900001C0660F0A94EAF7962B91B908959C0160
:1006A000332780FF02C0249A01C0249821FF02C092
:1006B000279A01C02798969587959695879581B931
:1006C0000895249905C080FF02C02C9A01C02C987F
:1006D000279905C081FF02C02F9A01C02F989695D7
:1006E00087959695879520E030E0992761E070E046
:1006F00041B150E0022E02C0559547950A94E2F7A9
:1007000040FD1DC0FC01022E02C0F595E7950A943C
:10071000E2F7E0FF0AC0E2B1AB01022E01C0440FD4
:100720000A94EAF7E42BE2B90AC0E2B1AB01022E67
:1007300001C0440F0A94EAF740954E2342B92F5F57
:100740003F4F28303105A1F60895811104C083B1CF
:10075000829581700895813029F483B1881F88279C
:10076000881F08958A30B0F440B1282F30E022501D
:10077000310981E090E0022E02C0880F991F0A948F
:10078000E2F750E08423952302C0959587952A953A
:10079000E2F7089580E008956623A1F0823060F0CA
:1007A00092B1825021E030E0082E01C0220F0A945D
:1007B000EAF7922B92B90895813011F42F9A089597
:1007C0002C9A0895823068F092B1825021E030E096
:1007D000082E01C0220F0A94EAF72095292322B996
:1007E0000895813011F42F9808952C980895AC0144
:1007F000569547955695479542B965B1AC014170FC
:10080000552774E0440F551F7A95E1F76F76642BF6
:1008100081FB222720F930E03695322F22273795A9
:100820002795622B65B9089580B123B193B1221F3A
:100830002227221F30E0220F331F94FB442740F968
:1008400050E0242B352B44E0849FC0011124822BDF
:10085000932B0895823050F0825021E030E0082E32
:1008600001C0220F0A94EAF720B90895813011F4EB
:1008700080E801C080E183B9089528E088E190E034
:100880000FB6F894A895809360000FBE2093600087
:10089000FFCFCF93282F220F2A7A86958575282B94
:1008A00034E0239FC00111248C7C26952695237368
:1008B000822B8295CFB7F8945E9A88B981E090E058
:1008C0000E947C025E98CFBFCF9108955F980E94EE
:1008D000490484E690E00E947C02089581E00E9431
:1008E000660484EE9CE00E947C0208958CE00E94E5
:1008F0006604089588E00E9466040895569A579AFF
:100900005E988FE090E00E94720288E30E94660485
:1009100084E293E10E947C0288E30E94660482E301
:1009200090E00E947C0288E30E94660488E30E94B3
:1009300066040E947A040E946E0486E00E946604A7
:100940000E94760408955F9A0E94490482E390E031
:100950000E947C020895A1E0B0E0E1EBF4E00C9489
:100960005E08082F10E0161739F0802F69830E9467
:10097000A3041F5F6981F7CF2196E4E00C947A0805
:100980001F93CF93DF93EC0110E0FE01E10FF11D07
:100990008081882321F01F5F0E94A304F6CFDF919E
:1009A000CF911F910895EF92FF921F93CF93DF9302
:1009B0001F92CDB7DEB77C0110E0F701E10FF11D0A
:1009C0008081882341F0161731F01F5F69830E94F0
:1009D000A3046981F2CF0F90DF91CF911F91FF9017
:1009E000EF9008951F93CF93DF93EC0110E0FE0189
:1009F000E10FF11D8491882321F00E94A3041F5F61
:100A0000F6CFDF91CF911F910895A1E0B0E0EBE028
:100A1000F5E00C945E08082F64E60E942A08805DC9
:100A200099830E94A3041AE09981892F612F0E9463
:100A30002A08805D0E94A304802F612F0E942A084B
:100A400080E3890F0E94A3042196E4E00C947A08C5
:100A5000CF93C82F8A3098F0843630F064E60E9435
:100A60002A08805D0E94A3048C2F64E60E942A0855
:100A7000892F6AE00E942A08805D0E94A3048C2FBF
:100A80006AE00E942A0880E3890F0E94A304CF91A4
:100A90000895CF93C82F87FD05C08BE20E94A30461
:100AA0008C2F05C08DE20E94A3048C2F81950E949B
:100AB0000505CF910895CF93C82F87FD05C08BE220
:100AC0000E94A3048C2F05C08DE20E94A3048C2FEA
:100AD00081950E942805CF910895EF92FF920F9380
:100AE0001F93CF93DF93EC0160E177E20E94360819
:100AF0007C0180E3860F0E94A30408EE13E0C70187
:100B0000B8010E94360880E3860F0E94A304CE013C
:100B1000B8010E94360804E610E0B8010E943608C9
:100B200080E3860F0E94A304CE01B8010E9436081C
:100B30000AE010E0B8010E94360880E3860F0E94A8
:100B4000A304CE01B8010E943608805D0E94A30470
:100B5000CDB7DEB7E6E00C947808CF93DF93EC01D5
:100B60008A309105D8F18436910558F1C83E83E06A
:100B7000D807D0F0C03187E2D80748F0CE0160E155
:100B800077E20E94360880E3860F0E94A304CE011C
:100B900060E177E20E94360868EE73E00E94360852
:100BA00080E3860F0E94A304CE0168EE73E00E94EA
:100BB000360864E670E00E94360880E3860F0E94E3
:100BC000A304CE0164E670E00E9436086AE070E09B
:100BD0000E94360880E3860F0E94A304CE016AE0DB
:100BE00070E00E943608805D0E94A304DF91CF91DF
:100BF0000895CF93DF93EC0197FD05C08BE20E942F
:100C0000A304CE0107C08DE20E94A3048827992780
:100C10008C1B9D0B0E946D05DF91CF910895CF93A2
:100C2000DF93EC0197FD05C08BE20E94A304CE0187
:100C300007C08DE20E94A304882799278C1B9D0B77
:100C40000E94AD05DF91CF9108958F708A3010F426
:100C5000805D01C0895C0E94A3040895CF93C82FD2
:100C600082958F700E9425068C2F0E942506CF91B9
:100C70000895A1E0B0E0EFE3F6E00C945F08182FD0
:100C8000892F82958F7099830E9425069981892FDB
:100C90000E942506812F82958F700E942506812F44
:100CA0000E9425062196E3E00C947B080F93CF93D6
:100CB000DF93CDB7DEB72A970FB6F894DEBF0FBE2D
:100CC000CDBF00E023E0AE014F5F5F4F0E94870879
:100CD000CE0101960E94C0042A960FB6F894DEBF9A
:100CE0000FBECDBFDF91CF910F910895AFE0B0E07F
:100CF000ECE7F6E00C945E089F938F938EE092E011
:100D00009F938F938E010F5F1F4F1F930F930E942E
:100D1000040AC8010E94C0040F900F900F900F901A
:100D20000F900F902F96E4E00C947A0880E80E94D0
:100D30006604089580EC0E9466040895382F862F7B
:100D400061E10E942A08292F206840E4349FC001F5
:100D50001124822B0E9466040895E0E8F0E081E00F
:100D600080838BE0809381008DB1806C8DB9259A52
:100D700080818068808310928900109288008DB1F4
:100D80008C608DB9269A80818062808310928B005E
:100D900010928A0008958F3729F4109288006D9A76
:100DA000759808956D98759A282F87FF07C08EB1A2
:100DB0008F7380688EB9220F2F5F06C08EB18F733C
:100DC00080648EB92095220F209388000895809327
:100DD00088008EB18F738EB908956D9907C08CB15C
:100DE00085FB882780F991E08927089580E00895A0
:100DF0008F3729F410928A006C9A749808956C9831
:100E0000749A282F87FF07C08EB1837F84608EB9C4
:100E1000220F2F5F06C08EB1837F88608EB9209528
:100E2000220F20938A00089580938A008EB1837FD9
:100E30008EB908956C9906C08CB18295817091E04D
:100E40008927089580E00895A1E0B0E0EAE2F7E0A4
:100E50000C946008D901811135C0653059F06038B3
:100E600081F06430C9F58C9190E0909320028093DA
:100E70001F0232C08C9190E090931E0280931D025D
:100E80002BC0809113029091140281159840B4F404
:100E9000E0911302F0911402EE0FFF1FE45DFC4F8E
:100EA0008C9190E091838083809113029091140241
:100EB000019690931402809313020EC081E08093F8
:100EC00012020AC089830E946E0489810E9425064D
:100ED00080ED97E00E9472022196E2E00C947C087B
:100EE0001F920F920FB60F9211240BB60F922F93F1
:100EF0003F934F935F936F937F938F939F93AF93A2
:100F0000BF93EF93FF936091CE0081E292E00E9445
:100F1000CD01FF91EF91BF91AF919F918F917F9103
:100F20006F915F914F913F912F910F900BBE0F905A
:100F30000FBE0F901F90189527E620937C0046ED7A
:100F400040937A0020917A0024FFFCCF2091780012
:100F5000309179003058FC0121933193CF016150D9
:100F600071096115710561F710927A0008950E9468
:100F700067020E9428010E943B01789462E070E0C1
:100F800089E00E94FB028FEF0E94C90220E030E05E
:100F900044E257E061E081E292E00E94630188EB65
:100FA0009BE00E94720282EC0E9455011092200286
:100FB00010921F02809112028823D9F00E946E04C1
:100FC0000E94960689EE90E00E94F2040E949A0622
:100FD0008AED90E00E94F20460E078E08CE293E019
:100FE0000E949C0710921402109213021092120297
:100FF00012C00E946E040E94960680911F0290917A
:1010000020020E9476060E949A0680911D0290910D
:101010001E020E94760680911F0290912002CD97B9
:101020002CF08DE90E94CB0681E60DC080911D0257
:1010300090911E028135910514F084EB01C08FE779
:101040000E94CB068FE70E94F80684EF91E00E9491
:101050007202B0CF991B79E004C0991F961708F06F
:10106000961B881F7A95C9F780950895AA1BBB1B0C
:1010700051E107C0AA1FBB1FA617B70710F0A61B98
:10108000B70B881F991F5A95A9F780959095BC01B9
:10109000CD010895EE0FFF1F0590F491E02D099406
:1010A0002F923F924F925F926F927F928F929F9278
:1010B000AF92BF92CF92DF92EF92FF920F931F9366
:1010C000CF93DF93CDB7DEB7CA1BDB0B0FB6F89417
:1010D000DEBF0FBECDBF09942A88398848885F8457
:1010E0006E847D848C849B84AA84B984C884DF80C8
:1010F000EE80FD800C811B81AA81B981CE0FD11DAC
:101100000FB6F894DEBF0FBECDBFED010895CF92AC
:10111000DF92EF92FF920F931F93CF93DF931F9273
:10112000CDB7DEB76A01102F322F283008F037E034
:1011300000E0232FA60139830E942509D6019C9146
:10114000292F28703981760190FF09C0211107C02D
:10115000BFEFEB1AFB0A2DE2F601208313C011FF4B
:1011600007C0FFEFEF1AFF0A4BE2D6014C9308C00D
:1011700010FF06C0BFEFEB1AFB0A40E2F601408306
:10118000211105C092FF0DC063EF70E002C06BEF4C
:1011900070E012FF02C06C5F7F4FC7010E94FD0923
:1011A00049C0F7013196D60111962C91D7012C93A5
:1011B000213309F09F7E3323D1F0AF01B6016E5F7A
:1011C0007F4F7B016EE2732F7E0DD7012D917D0144
:1011D000DA016D93AD017E1511F0622FF6CF31501B
:1011E000DF01A30FB11DFD01329611962C9312FF62
:1011F00002C025E401C025E62083DF01129687FFA7
:1012000004C09DE29183819508C0811104C094FFC0
:1012100002C09DE201C09BE2918390E38A301CF002
:101220009F5F8A50FBCF9C93805D11968C931197A2
:1012300012961C92C6010F90DF91CF911F910F91D2
:10124000FF90EF90DF90CF900895283008F027E0CE
:101250003327DA01990F311D87FD916000966105F2
:10126000710539F432602E5F3D9330E32A95E1F742
:1012700008959F3F30F080387105610509F03C5FAB
:101280003C5F3D93913008F08068911DDF93CF93D0
:101290001F930F93FF92EF92192F987F9695E92F46
:1012A00096959695E90FFF27E35AFE4F9927332726
:1012B000EE24FF24A701E70105900894079428F481
:1012C000360FE71EF81E491F511D660F771F881F36
:1012D000991F0694A1F70590079428F4E70EF81ECD
:1012E000491F561FC11D770F881F991F661F06943F
:1012F000A1F70590079428F4F80E491F561FC71F41
:10130000D11D880F991F661F771F0694A1F70590BE
:10131000079420F4490F561FC71FD81F990F661F47
:10132000771F881F0694A9F784911095177041F0D4
:10133000D695C79557954795F794E7941A95C1F7B1
:10134000E3E0F1E0689415901591359165919591E0
:1013500005907FE27395E118F10A430B560BC90B18
:10136000D009C0F7E10CF11E431F561FC91FD01D45
:101370007EF4703311F48A95E6CFE894015030F092
:10138000080F0AF40027021708F4202F2395022FD4
:101390007A3328F079E37D932A95E9F710C07D939D
:1013A0002A9589F60694979567953795179517941A
:1013B000E118F10A430B560BC90BD00998F023959D
:1013C0007E9173957A3308F070E37C932013B8F71D
:1013D0007E9170617D9330F0839571E37D9370E32E
:1013E0002A95E1F71124EF90FF900F911F91CF9173
:1013F000DF91992787FD90950895FB01DC01059009
:101400000D920020E1F708950F931F93CF93DF9380
:10141000CDB7DEB72E970FB6F894DEBF0FBECDBFA7
:101420000D891E8986E08C831A8309838FEF9FE7DD
:101430009E838D83AE01475E5F4F6F89788DCE01AD
:1014400001960E94330AEF81F885E00FF11F1082A8
:101450002E960FB6F894DEBF0FBECDBFDF91CF91B1
:101460001F910F9108952F923F924F925F926F922A
:101470007F928F929F92AF92BF92CF92DF92EF9224
:10148000FF920F931F93CF93DF93CDB7DEB72C97C7
:101490000FB6F894DEBF0FBECDBF7C016B018A0191
:1014A000FC0117821682838181FFBDC1CE010196A6
:1014B0004C01F7019381F60193FD859193FF819192
:1014C0006F01882309F4ABC1853239F493FD85910E
:1014D00093FF81916F01853229F4B70190E00E945A
:1014E000440CE7CF512C312C20E02032A0F48B3279
:1014F00069F030F4803259F0833269F420612CC0F5
:101500008D3239F0803339F4216026C022602460A6
:1015100023C0286021C027FD27C030ED380F3A30A6
:1015200078F426FF06C0FAE05F9E300D1124532E9A
:1015300013C08AE0389E300D1124332E20620CC077
:101540008E3221F426FD6BC1206406C08C3611F466
:10155000206802C0883641F4F60193FD859193FF1F
:1015600081916F018111C1CF982F9F7D9554933048
:1015700028F40C5F1F4FFFE3F9830DC0833631F071
:10158000833771F0833509F05BC022C0F801808198
:1015900089830E5F1F4F44244394512C540115C07E
:1015A0003801F2E06F0E711CF801A080B18026FFB7
:1015B00003C0652D70E002C06FEF7FEFC5012C877F
:1015C0000E94390C2C0183012C852F77222E17C005
:1015D0003801F2E06F0E711CF801A080B18026FF87
:1015E00003C0652D70E002C06FEF7FEFC5012C874F
:1015F0000E942E0C2C012C852068222E830123FCB6
:101600001BC0832D90E048165906B0F4B70180E264
:1016100090E00E94440C3A94F4CFF50127FC8591A8
:1016200027FE81915F01B70190E00E94440C3110C8
:101630003A94F1E04F1A51084114510471F7E5C092
:10164000843611F0893639F5F80127FF07C060812B
:101650007181828193810C5F1F4F08C0608171810D
:10166000882777FD8095982F0E5F1F4F2F76B22E1B
:1016700097FF09C090958095709561957F4F8F4F2A
:101680009F4F2068B22E2AE030E0A4010E94760C21
:10169000A82EA81844C0853729F42F7EB22E2AE040
:1016A00030E025C0F22FF97FBF2E8F36C1F018F43D
:1016B000883579F0B4C0803719F0883721F0AFC091
:1016C0002F2F2061B22EB4FE0DC08B2D8460B82E5A
:1016D00009C024FF0AC09F2F9660B92E06C028E0DB
:1016E00030E005C020E130E002C020E132E0F80146
:1016F000B7FE07C060817181828193810C5F1F4FAB
:1017000006C06081718180E090E00E5F1F4FA401F0
:101710000E94760CA82EA818FB2DFF77BF2EB6FED0
:101720000BC02B2D2E7FA51450F4B4FE0AC0B2FCC2
:1017300008C02B2D2E7E05C07A2C2B2D03C07A2CB1
:1017400001C0752C24FF0DC0FE01EA0DF11D808142
:10175000803311F4297E09C022FF06C0739473946C
:1017600004C0822F867809F0739423FD13C020FFF4
:1017700006C05A2C731418F4530C5718732C731496
:1017800068F4B70180E290E02C870E94440C7394C7
:101790002C85F5CF731410F4371801C0312C24FFB9
:1017A00012C0B70180E390E02C870E94440C2C8586
:1017B00022FF17C021FF03C088E590E002C088E740
:1017C00090E0B7010CC0822F867859F021FD02C04D
:1017D00080E201C08BE227FD8DE2B70190E00E941C
:1017E000440CA51438F4B70180E390E00E94440C47
:1017F0005A94F7CFAA94F401EA0DF11D8081B70144
:1018000090E00E94440CA110F5CF332009F451CE92
:10181000B70180E290E00E94440C3A94F6CFF701C1
:101820008681978102C08FEF9FEF2C960FB6F894B8
:10183000DEBF0FBECDBFDF91CF911F910F91FF9003
:10184000EF90DF90CF90BF90AF909F908F907F9060
:101850006F905F904F903F902F900895FC010590FE
:10186000615070400110D8F7809590958E0F9F1FA2
:101870000895FC016150704001900110D8F78095E7
:1018800090958E0F9F1F08950F931F93CF93DF9313
:10189000182F092FEB018B8181FD03C08FEF9FEF84
:1018A00020C082FF10C04E815F812C813D81421794
:1018B00053077CF4E881F9819F012F5F3F4F398303
:1018C0002883108306C0E885F985812F0995892B27
:1018D00029F72E813F812F5F3F4F3F832E83812F3A
:1018E000902FDF91CF911F910F910895FA01AA27B0
:1018F000283051F1203181F1E8946F936E7F6E5F53
:101900007F4F8F4F9F4FAF4FB1E03ED0B4E03CD000
:10191000670F781F891F9A1FA11D680F791F8A1FE3
:10192000911DA11D6A0F711D811D911DA11D20D04A
:1019300009F468943F912AE0269F11243019305D04
:101940003193DEF6CF010895462F4770405D4193F5
:10195000B3E00FD0C9F7F6CF462F4F70405D4A3342
:1019600018F0495D31FD4052419302D0A9F7EACF0A
:10197000B4E0A6959795879577956795BA95C9F739
:1019800000976105710508959B01AC010A2E06942C
:101990005795479537952795BA95C9F7620F731FE5
:0C19A000841F951FA01D0895F894FFCF30
:1019AC00AA0000803F0000674300005041AA256454
:0219BC00000029
:00000001FF
