:100000000C94F8000C941F010C941F010C941F0118
:100010000C941F010C941F010C941F010C941F01E0
:100020000C941F010C941F010C941F010C941F01D0
:100030000C941F010C941F010C941F010C941F01C0
:100040000C941F010C941F010C941F010C941F01B0
:100050000C941F010C941F010C941F010C941F01A0
:100060000C941F010C941F010C941F010C941F0190
:100070000C941F010C941F010C941F010C941F0180
:100080000C941F010C941F010C941F010C941F0170
:100090000C941C080C941F010C941F010C941F015C
:1000A0000C941F010C941F010C941F010C941F0150
:1000B0000C941F010C941F010C941F010C941F0140
:1000C0000C941F010C941F010C941F01506C65616E
:1000D000736520486F6C642E2E2E00446F696E6726
:1000E0002046465400696E6600494E46006E616EB9
:1000F000004E414E0000407A10F35A00A0724E1894
:10010000090010A5D4E80000E87648170000E40BC9
:1001100054020000CA9A3B000000E1F5050000808F
:10012000969800000040420F000000A086010000E9
:1001300000102700000000E8030000000064000039
:100140000000000A00000000000100000000002C78
:1001500076D888DC674F0823DFC1DFAE59E1B1B73D
:1001600096E5E3E453C63AE651997696E8E6C2840A
:1001700026EB898C9B62ED407C6FFCEFBC9C9F4022
:10018000F2BAA56FA5F490055A2AF75C936B6CF947
:10019000676DC11BFCE0E40D47FEF520E6B500D01D
:1001A000ED902E0300943577050080841E08000032
:1001B000204E0A000000C80C333333330F986E1200
:1001C000831141EF8D2114893BE65516CFFEE6DB06
:1001D00018D1844B381BF77C1D901DA4BBE4242050
:1001E0003284725E228100C9F124ECA1E53D270032
:1001F00011241FBECFEFD1E2DEBFCDBF88E10FB625
:10020000F89480936000109260000FBE12E0A0E0AE
:10021000B2E0ECE3FAE100E00BBF02C007900D9200
:10022000A231B107D9F714E2A2E1B2E001C01D92F8
:10023000AE32B107E1F70E94CF070C941C0D0C946D
:100240000000F8941092C50082E28093C400E0ECB4
:10025000F0E080818260808388E98093C10086E03D
:100260008093C20078940895F8941092CD0082E2B1
:100270008093CC00E8ECF0E080818260808388E9A4
:100280008093C90086E08093CA0078940895982FDF
:100290008091C00085FFFCCF9093C6000895982FF1
:1002A0008091C80085FFFCCF9093CE000895809187
:1002B000C00087FFFCCF8091C600089502C08091E6
:1002C000C6008091C00087FDFACF0895FC01009719
:1002D00019F42FEF3FEF14C0613029F0623029F09C
:1002E0002EEF3FEF0DC0618302C086E08183608303
:1002F000E95FFE4F419351933183208320E030E04A
:10030000C90108958F929F92AF92BF92DF92EF92B0
:10031000FF920F931F93CF93DF93EC0120E0DD2436
:1003200097E0892E91E0992E8C0E9D1E89E0A82ED3
:1003300081E0B82EAC0EBD1E26C0D394FE01E20FA4
:10034000F11D65812F5F6535C1F3F22E67FD03C096
:10035000EE24E39405C0FE01E20FF11DE580F39465
:10036000D401ED91FC91309761F02F2D30E02B5F9F
:100370003F4F2C0F3D1FD5010D911C918D2D4E2D02
:1003800009952E2D2F0D8B812817C0F280E090E06B
:10039000DF91CF911F910F91FF90EF90DF90BF9071
:1003A000AF909F908F900895FF920F931F93CF93DC
:1003B000DF93EC01F62E009719F42FEF3FEF9CC06E
:1003C00089818430B9F1853040F48230A9F08330DE
:1003D000D0F4813009F088C009C0863009F45AC0D1
:1003E0008630E0F1873009F07FC05AC08AEA68178A
:1003F00009F07FC082E030C08AEA681711F483E018
:100400002BC081E029C06B838AEA861728F481E03B
:1004100089832DEF3FEF6FC08AEA681719F42CEF3C
:100420003FEF69C01C82CB5FDE4F1882C550D140C0
:1004300084E012C09C81FE01E90FF11D65839F5F7E
:100440009C83FE01EB5FFE4F8081860F80838B8152
:10045000981708F44EC085E089834BC0CA5FDE4F11
:100460006883C650D14081E08983262F30E0CB5F7E
:10047000DE4F8881C550D140809590E0281739071C
:1004800019F02EEF3FEF37C0CE010E94820121E02C
:1004900030E031C0862F807C803859F587E0DCCF92
:1004A000862F807C803419F020E030E01AC08A81E9
:1004B0008D836E83C95FDE4FE881F981C750D140DB
:1004C000309769F09E012B5F3F4FC75FDE4F088179
:1004D0001981C950D14080E060E842E0099521E0EF
:1004E00030E086E0898307C081E089832BEF3FEF0E
:1004F00002C020E030E0FA82C901CDB7DEB7E5E006
:100500000C94CE0820EA3FE004C0F9013197F1F7DE
:1005100001970097D1F7089524E030E004C0F90175
:100520003197F1F701970097D1F7089589B1829536
:100530008F708095817008954C99FECF8EE190E088
:1005400020EA3FE0F9013197F1F70197D9F74C9B89
:10055000FECF8EE190E020EA3FE0F9013197F1F71C
:100560000197D9F708954C99FECF8EE190E020EAEB
:100570003FE0F9013197F1F70197D9F729EB40EA0C
:100580005FE04C990AC0222341F0CA010197F1F7BC
:10059000CA010197F1F72150F4CF4C9BFECF8EE1B9
:1005A00090E040EA5FE0FA013197F1F70197D9F75F
:1005B00080E0222309F481E00895A29A0895A29888
:1005C000089584B394E0892784BB089540E050E007
:1005D000682F70E0E1E0F0E080B390E0042E02C00C
:1005E000959587950A94E2F780FD1FC0CB01042EF4
:1005F00002C0959587950A94E2F780FF0BC021B35E
:10060000CF01042E02C0880F991F0A94E2F7282B0D
:1006100021BB0BC021B3CF01042E02C0880F991F4C
:100620000A94E2F78095822381BB4F5F5F4F483089
:10063000510591F60895882399F46130710571F0A0
:100640006130710528F06230710509F053C003C0B4
:1006500024982C98089524982C9A0895249A089503
:10066000813099F46130710571F06130710528F0C5
:100670006230710509F03EC003C027982F98089595
:1006800027982F9A0895279A08958A3098F5482F29
:1006900042506130710531F16130710520F06230F6
:1006A000710541F50FC081B121E030E002C0220F99
:1006B000331F4A95E2F72095822381B982B128231E
:1006C00022B9089531B181E090E002C0880F991FEE
:1006D0004A95E2F7282F2095232321B922B1822BB6
:1006E00082B9089581B102C0660F771F4A95E2F77B
:1006F000862B81B90895282F80FF02C0249A01C05B
:10070000249821FF02C0279A01C0279896958795C3
:100710009695879581B90895249905C080FF02C0F8
:100720002C9A01C02C98279905C081FF02C02F9AEE
:1007300001C02F98969587959695879540E050E053
:10074000682F70E0E1E0F0E081B190E0042E02C09B
:10075000959587950A94E2F780FD1FC0CB01042E82
:1007600002C0959587950A94E2F780FF0BC022B1ED
:10077000CF01042E02C0880F991F0A94E2F7282B9C
:1007800022B90BC022B1CF01042E02C0880F991FDD
:100790000A94E2F78095822382B94F5F5F4F483019
:1007A000510591F60895882351F483B190E080714A
:1007B000907044E0959587954A95E1F708958130CA
:1007C00029F483B1881F8827881F08958A3010F084
:1007D00080E0089540B1282F30E02250304081E081
:1007E00090E0022E02C0880F991F0A94E2F750E0B1
:1007F0008423952302C0959587952A95E2F708955D
:100800006623B9F0823078F042B1282F30E02250D0
:10081000304081E090E002C0880F991F2A95E2F7EE
:10082000482B42B90895813011F42F9A08952C9ADB
:100830000895823080F042B1282F30E022503040BD
:1008400081E090E002C0880F991F2A95E2F7809519
:10085000842382B90895813011F42F9808952C983B
:1008600008959C01369527953695279522B945B16F
:1008700090E09C012170307074E0220F331F7A9554
:10088000E1F74F76422B82709070959587959695FB
:10089000982F882797958795482B45B9089540B19B
:1008A00083B123B130E020713070B4E035952795E5
:1008B000BA95E1F750E0440F551F440F551F242B04
:1008C000352B881F8827881F90E0880F991F282BB9
:1008D000392BC9010895823068F0282F30E022506A
:1008E000304081E090E002C0880F991F2A95E2F71E
:1008F00080B90895813011F480E801C080E183B9A6
:10090000089528E088E190E00FB6F894A8958093C8
:1009100060000FBE20936000FFCF54985C9A9A9AB3
:10092000559A8FEF87B90E94CE060E94F30608956C
:100930001F93982F990F9A7A86958575982B892FF2
:10094000880F880F8C7C969596959373892B82954A
:100950001FB7F8945E9A88B981E090E00E948C02FB
:100960005E981FBF1F9108955F980E94980484E6C7
:1009700090E00E948C020895282F30E086E0220F3C
:10098000331F8A95E1F7862F61E10E948508892F40
:10099000822B80680E94B404089580EC0E94B40405
:1009A000089580E80E94B404089588E00E94B40489
:1009B00008958CE00E94B40408955F9A0E94980400
:1009C00082E390E00E948C0208958F708A3010F4C8
:1009D000805D01C0895C0E94DD0408950F931F9320
:1009E0008C01812F82958F700E94E504812F0E94D7
:1009F000E504802F82958F700E94E504802F0E946D
:100A0000E5041F910F9108951F93182F82958F7001
:100A10000E94E504812F0E94E5041F910895CF9361
:100A2000DF93EC018A309105D8F18436910558F1B5
:100A300083E0C83ED807D0F087E2C031D80748F03D
:100A4000CE0160E177E20E949108862F805D0E94CE
:100A5000DD04CE0160E177E20E94910868EE73E068
:100A60000E949108862F805D0E94DD04CE0168EE11
:100A700073E00E94910864E670E00E949108862F5E
:100A8000805D0E94DD04CE0164E670E00E94910862
:100A90006AE070E00E949108862F805D0E94DD046C
:100AA000CE016AE070E00E949108805D0E94DD0442
:100AB000DF91CF910895CF93DF93EC0197FD05C0AF
:100AC0008BE20E94DD04CE0107C08DE20E94DD04AE
:100AD000882799278C1B9D0B0E940F05DF91CF91D2
:100AE00008950F931F938C0160E177E20E949108B3
:100AF000862F805D0E94DD04C80160E177E20E94DC
:100B0000910868EE73E00E949108862F805D0E9434
:100B1000DD04C80168EE73E00E94910864E670E0AD
:100B20000E949108862F805D0E94DD04C80164E662
:100B300070E00E9491086AE070E00E949108862FA0
:100B4000805D0E94DD04C8016AE070E00E949108A7
:100B5000805D0E94DD041F910F910895CF93DF9374
:100B6000EC0197FD05C08BE20E94DD04CE0107C0B9
:100B70008DE20E94DD04882799278C1B9D0B0E9423
:100B80007105DF91CF9108951F93182F8A3098F047
:100B9000843630F064E60E948508805D0E94DD04A2
:100BA000812F64E60E948508892F6AE00E948508EB
:100BB000805D0E94DD04812F6AE00E948508892FF4
:100BC000805D0E94DD041F9108951F93182F87FDFB
:100BD00005C08BE20E94DD04812F05C08DE20E94DA
:100BE000DD04812F81950E94C4051F9108951F93F4
:100BF000182F64E60E948508805D0E94DD04812F25
:100C000064E60E948508892F6AE00E948508805D5D
:100C10000E94DD04812F6AE00E948508892F805D93
:100C20000E94DD041F9108951F93182F87FD05C0B2
:100C30008BE20E94DD04812F05C08DE20E94DD045D
:100C4000812F81950E94F7051F9108951F93CF93DF
:100C5000DF93EC0110E003C00E94DD041F5FFE0182
:100C6000E10FF11D84918823B9F7DF91CF911F9196
:100C700008950F931F93CF93DF93EC01062F10E09D
:100C800003C01F5F0E94DD04FE01E10FF11D8081A2
:100C9000882311F01017A8F3DF91CF911F910F91C6
:100CA00008951F93CF93DF93EC0110E003C01F5F03
:100CB0000E94DD04FE01E10FF11D80818823B9F758
:100CC000DF91CF911F910895FF920F931F93F82EFC
:100CD000062F10E004C08F2D0E94DD041F5F101747
:100CE000D0F31F910F91FF90089581E00E94B4040A
:100CF00084EE9CE00E948C020895AFE0B0E0E3E84F
:100D0000F6E00C94B30800D000D000D0EDB7FEB7E9
:100D100031968E010F5F1F4FADB7BEB712961C9371
:100D20000E93119720E032E03383228395838483EE
:100D30000E94450A8DB79EB706960FB6F8949EBFDF
:100D40000FBE8DBFC8010E9451062F96E4E00C949F
:100D5000CF08EF92FF920F93DF93CF93CDB7DEB71B
:100D60002A970FB6F894DEBF0FBECDBF7E01089460
:100D7000E11CF11CA70123E000E00E94DC08C70190
:100D80000E9451062A960FB6F894DEBF0FBECDBF63
:100D9000CF91DF910F91FF90EF900895569A579A57
:100DA0005E988FE090E00E94820288E30E94B40483
:100DB00084E293E10E948C0288E30E94B40482E3FF
:100DC00090E00E948C0288E30E94B40488E30E94B1
:100DD000B4040E94D5040E94750686E00E94B40403
:100DE0000E94D9040895E0E8F0E081E080838BE080
:100DF000809381008DB1806C8DB9259A8081806847
:100E0000808310928900109288008DB18C608DB91A
:100E1000269A80818062808310928B0010928A00D3
:100E200008958F3729F4109288006D9A7598089567
:100E30006D98759A282F30E087FF08C08EB18F73A8
:100E400080688EB9822F880F8F5F0AC08EB18F7332
:100E500080648EB98FE790E0821B930B880F991FF7
:100E6000809388000895809388008EB18F738EB927
:100E700008956D9B02C080E008958CB1829586959F
:100E800087708095817008958F3729F410928A00B9
:100E90006C9A749808956C98749A282F30E087FFA4
:100EA00008C08EB1837F84608EB9822F880F8F5FD8
:100EB0000AC08EB1837F88608EB98FE790E0821B75
:100EC000930B880F991F80938A00089580938A005E
:100ED0008EB1837F8EB908956C9B02C080E0089527
:100EE0008CB182958F7080958170089508950F93CD
:100EF0001F93082FF901882309F045C0653061F080
:100F0000603889F0643009F047C0808190E09093A8
:100F100013028093120240C0808190E090931502EA
:100F20008093140239C080911E0290911F0280505C
:100F300098402CF500911E0210911F02618170E013
:100F4000308120E0622B732B882777FD8095982FC6
:100F50000E944A08000F111F000F111F045D1C4F53
:100F6000F801608371838283938380911E02909144
:100F70001F02019690931F0280931E020DC081E014
:100F80008093200209C00E947506802F0E94E5040C
:100F900080ED97E00E9482021F910F9108950E94B8
:100FA0008D040E9421010E943401789489E062E05E
:100FB00070E00E941B038FEF0E94E60281E292E044
:100FC00061E047E757E020E030E00E94660188EBEF
:100FD0009BE00E94820282EC0E944F011092130259
:100FE0001092120280912002882379F00E947506E7
:100FF0000E94D1048BED90E00E9426060E94CD0451
:101000008CEC90E00E942606EDCF0E9475060E94AF
:10101000D10480911202909113020E947D060E94D9
:10102000CD0480911402909115020E947D0684EFF8
:1010300091E00E948202D6CF1F920F920FB60F92BC
:101040000BB60F9211242F933F934F935F936F939F
:101050007F938F939F93AF93BF93EF93FF93609191
:10106000CE0081E292E00E94D401FF91EF91BF9106
:10107000AF919F918F917F916F915F914F913F9130
:101080002F910F900BBE0F900FBE0F901F901895D1
:10109000E89409C097FB3EF4909580957095619512
:1010A0007F4F8F4F9F4F9923A9F0F92F96E9BB27C8
:1010B0009395F695879577956795B795F111F8CF44
:1010C000FAF4BB0F11F460FF1BC06F5F7F4F8F4FAF
:1010D0009F4F16C0882311F096E911C0772321F0A5
:1010E0009EE8872F762F05C0662371F096E8862F3D
:1010F00070E060E02AF09A95660F771F881FDAF794
:10110000880F9695879597F90895991B79E004C003
:10111000991F961708F0961B881F7A95C9F7809536
:101120000895AA1BBB1B51E107C0AA1FBB1FA6172E
:10113000B70710F0A61BB70B881F991F5A95A9F780
:1011400080959095BC01CD0108952F923F924F92CA
:101150005F926F927F928F929F92AF92BF92CF9247
:10116000DF92EF92FF920F931F93CF93DF93CDB750
:10117000DEB7CA1BDB0B0FB6F894DEBF0FBECDBFC8
:1011800009942A88398848885F846E847D848C8499
:101190009B84AA84B984C884DF80EE80FD800C81A2
:1011A0001B81AA81B981CE0FD11D0FB6F894DEBF85
:1011B0000FBECDBFED010895DF92EF92FF920F9326
:1011C0001F93CF93DF937A01D02E122F283008F08F
:1011D00017E0A701212F00E00E946609682FF701A0
:1011E0005191252F50FF04C053FD02C08DE209C06C
:1011F000D1FE02C08BE205C0D0FC02C0C70104C012
:1012000080E2D7018C93CF01482F392F23FF03C0F1
:101210006DEE70E004C022FF0BC065EE70E0D2FE00
:1012200002C06C5F7F4F842F932F0E943E0A45C0FF
:10123000F7012181DC012D93213309F05F7E112319
:10124000A9F0E701842F932FFC01912F2EE28A81D0
:101250002183915021963196282F9923C1F711505F
:10126000812F90E00196A80FB91F2D93D2FC02C0E8
:1012700085E601C085E4962FFD01819367FF07C0D5
:101280008DE211968C93DF01119691950AC0662329
:1012900029F454FF03C0DF018DE202C0DF018BE2BD
:1012A0008D9380E302C08F5F9A509A30E4F7FD017E
:1012B0008193905D11969C931182C701DF91CF912C
:1012C0001F910F91FF90EF90DF900895283008F064
:1012D00027E03327DA01990F311D87FD91600096D1
:1012E0006105710539F432602E5F3D9330E32A9534
:1012F000E1F708959F3F30F080387105610509F0EE
:101300003C5F3C5F3D93913008F08068911DDF9316
:10131000CF931F930F93FF92EF92192F987F96957B
:10132000E92F96959695E90FFF27E15BFE4F9927E8
:101330003327EE24FF24A701E701059008940794C2
:1013400028F4360FE71EF81E491F511D660F771F40
:10135000881F991F0694A1F70590079428F4E70EBB
:10136000F81E491F561FC11D770F881F991F661F42
:101370000694A1F70590079428F4F80E491F561F0C
:10138000C71FD11D880F991F661F771F0694A1F7ED
:101390000590079420F4490F561FC71FD81F990FB7
:1013A000661F771F881F0694A9F784911095177000
:1013B00041F0D695C79557954795F794E7941A95B8
:1013C000C1F7E5EFF0E068941590159135916591BE
:1013D000959105907FE27395E118F10A430B560B46
:1013E000C90BD009C0F7E10CF11E431F561FC91FDE
:1013F000D01D7EF4703311F48A95E6CFE894015045
:1014000030F0080F0AF40027021708F4202F239564
:10141000022F7A3328F079E37D932A95E9F710C0FB
:101420007D932A9589F60694979567953795179534
:101430001794E118F10A430B560BC90BD00998F029
:1014400023957E9173957A3308F070E37C93201393
:10145000B8F77E9170617D9330F0839571E37D9351
:1014600070E32A95E1F71124EF90FF900F911F91FF
:10147000CF91DF91992787FD90950895FB01DC01BD
:1014800005900D920020E1F708950F931F93DF93CD
:10149000CF93CDB7DEB72E970FB6F894DEBF0FBE51
:1014A000CDBF0D891E8986E08C831A8309838FEF57
:1014B0009FE79E838D839E01275E3F4FCE0101965D
:1014C0006F89788DA9010E94760A2F813885020FD5
:1014D000131FF80110822E960FB6F894DEBF0FBED0
:1014E000CDBFCF91DF911F910F9108952F923F9221
:1014F0004F925F926F927F928F929F92AF92BF9224
:10150000CF92DF92EF92FF920F931F93DF93CF93CF
:10151000CDB7DEB72B970FB6F894DEBF0FBECDBFA9
:101520003C012B015A01FC0117821682838181FD47
:1015300003C06FEF7FEFC6C19AE0892E1E010894A9
:10154000211C311CF3012381F20123FD859123FF2E
:1015500081912F01882309F4B2C1853239F423FD2A
:10156000859123FF81912F01853229F490E0B30109
:101570000E94920CE7CF982FFF24EE249924FFE1DC
:10158000FF15D0F09B3269F09C3228F4903259F06C
:10159000933291F40EC09D3249F0903369F441E0EA
:1015A00024C052E0F52A84E0F82A28C098E0F92AFD
:1015B00025C0E0E1FE2A22C0F7FC29C0892F805314
:1015C0008A3070F4F6FE05C0989C902C1124980E79
:1015D00015C0E89CE02C1124E80EF0E2FF2A0EC0B2
:1015E0009E3229F4F6FC6BC140E4F42A07C09C3615
:1015F00019F450E8F52A02C0983649F4F20123FDA7
:10160000959123FF91912F01992309F0B8CF892F4C
:101610008554833018F08052833038F444E050E031
:10162000A40EB51E5FE359830FC0933631F0933794
:1016300079F0933509F056C020C0F5018081898387
:1016400042E050E0A40EB51E610101E010E012C0BE
:10165000F501C080D180F6FC03C06FEF7FEF02C0C0
:10166000692D70E042E050E0A40EB51EC6010E9454
:10167000870C8C015FE7F52214C0F501C080D18092
:10168000F6FC03C06FEF7FEF02C0692D70E042E00F
:1016900050E0A40EB51EC6010E947C0C8C0150E8DF
:1016A000F52AF3FE07C01AC080E290E0B3010E9461
:1016B000920CEA948E2D90E008171907A8F30EC03B
:1016C000F601F7FC8591F7FE81916F0190E0B3017F
:1016D0000E94920CE110EA9401501040011511058E
:1016E00079F7EAC0943611F0993669F5F7FE08C02B
:1016F000F501208131814281538184E090E00AC06C
:10170000F501808191819C01442737FD4095542F3C
:1017100082E090E0A80EB91E9FE6F92257FF09C0AB
:1017200050954095309521953F4F4F4F5F4FE0E8E2
:10173000FE2ACA01B901A1012AE030E00E94BE0CD4
:10174000D82ED21840C0953729F41F2D1F7E2AE0CD
:1017500030E01DC01F2D197F9F3661F0903720F4B7
:10176000983509F0ACC00FC0903739F0983709F0C0
:10177000A6C004C028E030E00AC0106114FD146067
:1017800020E130E004C014FD166020E132E017FFD4
:1017900008C0F501608171818281938144E050E04D
:1017A00008C0F50180819181BC0180E090E042E0B9
:1017B00050E0A40EB51EA1010E94BE0CD82ED21876
:1017C0008FE7F82EF122F6FE0BC05EEFF522D9145A
:1017D00038F4F4FE07C0F2FC05C08FEEF82202C018
:1017E0001D2D01C0192DF4FE0DC0FE01ED0DF11DE2
:1017F0008081803319F499EEF92208C01F5FF2FE50
:1018000005C003C08F2D867809F01F5F0F2DF3FCF4
:1018100014C0F0FE0FC01E1510F09D2C0BC09D2CA7
:101820009E0C911A1E2D06C080E290E0B3010E942A
:10183000920C1F5F1E15C0F304C01E1510F4E11AB0
:1018400001C0EE2404FF0FC080E390E0B3010E94CA
:10185000920C02FF1DC001FD03C088E790E00EC09E
:1018600088E590E00BC0802F867891F001FF02C0E0
:101870008BE201C080E2F7FC8DE290E0B3010E94B0
:10188000920C06C080E390E0B3010E94920C9A94FF
:10189000D914C0F3DA94F101ED0DF11D808190E0CF
:1018A000B3010E94920CDD20A9F706C080E290E00F
:1018B000B3010E94920CEA94EE20C1F743CEF301EB
:1018C00066817781CB012B960FB6F894DEBF0FBEF1
:1018D000CDBFCF91DF911F910F91FF90EF90DF90DF
:1018E000CF90BF90AF909F908F907F906F905F90C0
:1018F0004F903F902F900895FC01059061507040EB
:101900000110D8F7809590958E0F9F1F0895FC01C8
:101910006150704001900110D8F7809590958E0F1E
:101920009F1F08950F931F93CF93DF938C01EB01BB
:101930008B8181FF1BC082FF0DC02E813F818C8176
:101940009D812817390764F4E881F9810193F983AF
:10195000E88306C0E885F985802F0995892B31F445
:101960008E819F8101969F838E8302C00FEF1FEFB0
:10197000C801DF91CF911F910F910895FA01AA2715
:10198000283051F1203181F1E8946F936E7F6E5FC2
:101990007F4F8F4F9F4FAF4FB1E03ED0B4E03CD070
:1019A000670F781F891F9A1FA11D680F791F8A1F53
:1019B000911DA11D6A0F711D811D911DA11D20D0BA
:1019C00009F468943F912AE0269F11243019305D74
:1019D0003193DEF6CF010895462F4770405D419365
:1019E000B3E00FD0C9F7F6CF462F4F70405D4A33B2
:1019F00018F0495D31FD4052419302D0A9F7EACF7A
:101A0000B4E0A6959795879577956795BA95C9F7A8
:101A100000976105710508959B01AC010A2E06949B
:101A20005795479537952795BA95C9F7620F731F54
:0C1A3000841F951FA01D0895F894FFCF9F
:101A3C00256400AA00005041000067430000803F6D
:021A4C00AA00EE
:00000001FF
